S01100005350495F536C6176652E73726563CD
S11300000C942A000C9434000C9434000C943400A6
S11300100C9434000C9434000C9434000C9434008C
S11300200C9434000C9434000C9434000C9434007C
S11300300C9434000C9434000C9434000C9434006C
S11300400C9434000C9434000C9434000C9434005C
S11300500C94340011241FBECFE5D8E0DEBFCDBF21
S11300600E943C010C9474010C9400004423B9F1E7
S1130070413009F06BC0813089F028F08230C9F03A
S1130080833011F108952AB381E090E002C0880F13
S1130090991F6A95E2F7822B8ABB089527B381E002
S11300A090E002C0880F991F6A95E2F7822B87BB04
S11300B0089524B381E090E002C0880F991F6A95E7
S11300C0E2F7822B84BB089521B381E090E002C063
S11300D0880F991F6A95E2F7822B81BB08958130BE
S11300E091F028F08230D9F0833029F108952AB3B1
S11300F081E090E002C0880F991F6A95E2F780952D
S113010082238ABB089527B381E090E002C0880F60
S1130110991F6A95E2F78095822387BB089524B3DB
S113012081E090E002C0880F991F6A95E2F78095FC
S1130130822384BB089521B381E090E002C0880F3C
S1130140991F6A95E2F78095822381BB0895442321
S1130150B9F1413009F06BC0813089F028F0823068
S1130160C9F0833011F108952BB381E090E002C00F
S1130170880F991F6A95E2F7822B8BBB089528B3E9
S113018081E090E002C0880F991F6A95E2F7822B04
S113019088BB089525B381E090E002C0880F991FC1
S11301A06A95E2F7822B85BB089522B381E090E043
S11301B002C0880F991F6A95E2F7822B82BB0895CB
S11301C0813091F028F08230D9F0833029F10895FC
S11301D02BB381E090E002C0880F991F6A95E2F783
S11301E0809582238BBB089528B381E090E002C000
S11301F0880F991F6A95E2F78095822388BB08953A
S113020025B381E090E002C0880F991F6A95E2F758
S11302108095822385BB089522B381E090E002C0DB
S1130220880F991F6A95E2F78095822382BB08950F
S113023041E064E083E00E943600089541E063E019
S113024083E00E943600089541E064E083E00E9468
S1130250A700089541E063E083E00E94A7000895A9
S113026040E064E083E00E94A700089540E063E07A
S113027083E00E94A70008950E9418010E941E01B5
S11302800E94590180E00E946F01813319F40E9499
S11302902401F8CF823319F40E943001F3CF833361
S11302A019F40E942A01EECF843361F70E943601CB
S11302B0E9CF40E064E081E00E94360040E065E080
S11302C081E00E94360041E066E081E00E94360051
S11302D040E067E081E00E9436006E9A08958FB98D
S10F02E0779BFECF8FB10895F894FFCFF8
S9030000FC
