:100000000C942A000C943C000C943C000C943C0092
:100010000C943C000C943C000C943C000C943C0070
:100020000C943C000C943C000C943C000C943C0060
:100030000C943C000C943C000C943C000C943C0050
:100040000C943C000C943C000C943C000C943C0040
:100050000C943C0011241FBECFE5D8E0DEBFCDBF1D
:1000600020E0A0E6B0E001C01D92A036B207E1F7A3
:100070000E9420010C9474010C9400004423B9F1F7
:10008000413009F06BC0813089F028F08230C9F02E
:10009000833011F108952AB381E090E002C0880F07
:1000A000991F6A95E2F7822B8ABB089527B381E0F6
:1000B00090E002C0880F991F6A95E2F7822B87BBF8
:1000C000089524B381E090E002C0880F991F6A95DB
:1000D000E2F7822B84BB089521B381E090E002C057
:1000E000880F991F6A95E2F7822B81BB08958130B2
:1000F00091F028F08230D9F0833029F108952AB3A5
:1001000081E090E002C0880F991F6A95E2F7809520
:1001100082238ABB089527B381E090E002C0880F54
:10012000991F6A95E2F78095822387BB089524B3CF
:1001300081E090E002C0880F991F6A95E2F78095F0
:10014000822384BB089521B381E090E002C0880F30
:10015000991F6A95E2F78095822381BB0895442315
:10016000B9F1413009F06BC0813089F028F082305C
:10017000C9F0833011F108952BB381E090E002C003
:10018000880F991F6A95E2F7822B8BBB089528B3DD
:1001900081E090E002C0880F991F6A95E2F7822BF8
:1001A00088BB089525B381E090E002C0880F991FB5
:1001B0006A95E2F7822B85BB089522B381E090E037
:1001C00002C0880F991F6A95E2F7822B82BB0895BF
:1001D000813091F028F08230D9F0833029F10895F0
:1001E0002BB381E090E002C0880F991F6A95E2F777
:1001F000809582238BBB089528B381E090E002C0F4
:10020000880F991F6A95E2F78095822388BB08952D
:1002100025B381E090E002C0880F991F6A95E2F74C
:100220008095822385BB089522B381E090E002C0CF
:10023000880F991F6A95E2F78095822382BB089503
:100240000E945D010E9438010E9457012FEF83ED4B
:1002500090E3215080409040E1F700C000000E94F0
:1002600070018823E1F30E9451010E945501F7CFEC
:1002700041E064E081E00E943E0041E065E081E011
:100280000E943E0040E066E081E00E943E0041E0C6
:1002900067E081E00E943E00689A699A6C9A6E9AC3
:1002A00008958FB9779BFECF08958FB1089540E0F0
:1002B00064E081E00E94AF00089540E060E083E0E8
:1002C0000E943E0041E061E083E00E943E008AB16E
:1002D00088618AB980B5866880BD87E689B9089546
:0C02E0005F9BFECF8CB10895F894FFCF17
:00000001FF
